:020000040800F2
:1000000000500020851A0008811800088718000891
:100010008D180008931800089918000800000000C7
:100020000000000000000000000000009F18000811
:10003000AB18000800000000B7180008C31800083B
:10004000CD1A0008CD1A0008CD1A0008CD1A0008F4
:10005000CD1A0008CD1A0008CD1A0008CD1A0008E4
:10006000CD1A0008CD1A0008CD1A0008CD1A0008D4
:10007000CD1A0008CD1A0008CD1A0008CD1A0008C4
:10008000CD1A0008CD1A0008CD1A0008CD1A0008B4
:10009000CD1A0008D1180008CD1A0008CD1A0008A2
:1000A000CD1A0008CD1A0008CD1A0008CD1A000894
:1000B000CD1A0008CD1A0008CD1A0008CD1A000884
:1000C000CD1A0008CD1A0008CD1A0008CD1A000874
:1000D000CD1A0008E5180008CD1A0008CD1A00084E
:1000E000CD1A0008CD1A0008CD1A00080000000043
:1000F0000000000000000000000000000000000000
:0C01000000000000000000005FF808F1A3
:1001100010B5054C237833B9044B13B10448AFF341
:1001200000800123237010BDF801002000000000B2
:10013000D47C000808B5034B1BB103490348AFF357
:10014000008008BD00000000FC010020D47C0008F5
:10015000034613F8012B002AFBD1181A0138704707
:1001600081F0004102E000BF83F0004330B54FEA68
:1001700041044FEA430594EA050F08BF90EA020FD5
:100180001FBF54EA000C55EA020C7FEA645C7FEA68
:10019000655C00F0E2804FEA5454D4EB5555B8BF8B
:1001A0006D420CDD2C4480EA020281EA030382EAFC
:1001B000000083EA010180EA020281EA0303362D8E
:1001C00088BF30BD11F0004F4FEA01314FF4801C61
:1001D0004CEA113102D0404261EB410113F0004F73
:1001E0004FEA03334CEA133302D0524263EB43032A
:1001F00094EA050F00F0A780A4F10104D5F1200EC8
:100200000DDB02FA0EFC22FA05F2801841F1000122
:1002100003FA0EF2801843FA05F359410EE0A5F1F6
:1002200020050EF1200E012A03FA0EFC28BF4CF027
:10023000020C43FA05F3C01851EBE37101F00045DD
:1002400007D54FF0000EDCF1000C7EEB00006EEBEA
:100250000101B1F5801F1BD3B1F5001F0CD3490874
:100260005FEA30004FEA3C0C04F101044FEA4452CB
:1002700012F5800F80F09A80BCF1004F08BF5FEA52
:10028000500C50F1000041EB045141EA050130BD32
:100290005FEA4C0C404141EB0101013C28BFB1F544
:1002A000801FE9D291F0000F04BF01460020B1FA8F
:1002B00081F308BF2033A3F10B03B3F120020CDA62
:1002C0000C3208DD02F1140CC2F10C0201FA0CF040
:1002D00021FA02F10CE002F11402D8BFC2F1200CA5
:1002E00001FA02F120FA0CFCDCBF41EA0C0190405B
:1002F000E41AA2BF01EB0451294330BD6FEA0404A4
:100300001F3C1CDA0C340EDC04F11404C4F120028E
:1003100020FA04F001FA02F340EA030021FA04F3A0
:1003200045EA030130BDC4F10C04C4F1200220FAF7
:1003300002F001FA04F340EA0300294630BD21FA35
:1003400004F0294630BD94F0000F83F4801306BFFB
:1003500081F480110134013D4EE77FEA645C18BFEF
:100360007FEA655C29D094EA050F08BF90EA020F86
:1003700005D054EA000C04BF1946104630BD91EA7E
:10038000030F1EBF0021002030BD5FEA545C05D181
:100390004000494128BF41F0004130BD14F58004C0
:1003A0003CBF01F5801130BD01F0004545F0FE4134
:1003B00041F470014FF0000030BD7FEA645C1ABF69
:1003C000194610467FEA655C1CBF0B46024650EAA0
:1003D000013406BF52EA033591EA030F41F40021CC
:1003E00030BD00BF90F0000F04BF0021704730B552
:1003F0004FF4806404F132044FF000054FF0000127
:1004000050E700BF90F0000F04BF0021704730B5E7
:100410004FF4806404F1320410F0004548BF4042BC
:100420004FF000013EE700BF42004FEAE2014FEA11
:1004300031014FEA02701FBF12F07F4393F07F4FEC
:1004400081F06051704732F07F4208BF704793F0EF
:100450007F4F04BF41F40021704730B54FF4607402
:1004600001F0004521F000411CE700BF50EA010205
:1004700008BF704730B54FF000050AE050EA0102AE
:1004800008BF704730B511F0004502D5404261EB1E
:1004900041014FF4806404F132045FEA915C3FF45F
:1004A000D8AE4FF003025FEADC0C18BF03325FEAFC
:1004B000DC0C18BF033202EBDC02C2F1200300FAAD
:1004C00003FC20FA02F001FA03FE40EA0E0021FAD2
:1004D00002F11444BDE600BF70B54FF0FF0C4CF4C0
:1004E000E06C1CEA11541DBF1CEA135594EA0C0F72
:1004F00095EA0C0F00F0DEF82C4481EA030621EAAD
:100500004C5123EA4C5350EA013518BF52EA0335E7
:1005100041F4801143F4801338D0A0FB02CE4FF099
:100520000005E1FB02E506F00042E0FB03E54FF0C9
:100530000006E1FB03569CF0000F18BF4EF0010EC1
:10054000A4F1FF04B6F5007F64F5407404D25FEABD
:100550004E0E6D4146EB060642EAC62141EA555170
:100560004FEAC52040EA5E504FEACE2EB4F1FD0CB2
:1005700088BFBCF5E06F1ED8BEF1004F08BF5FEA30
:10058000500E50F1000041EB045170BD06F00046E2
:1005900046EA010140EA020081EA0301B4EB5C048F
:1005A000C2BFD4EB0C0541EA045170BD41F4801187
:1005B0004FF0000E013C00F3AB8014F1360FDEBFAC
:1005C000002001F0004170BDC4F10004203C35DA88
:1005D0000C341BDC04F11404C4F1200500FA05F30B
:1005E00020FA04F001FA05F240EA020001F00042AC
:1005F00021F0004110EBD37021FA04F642EB060122
:100600005EEA430E08BF20EAD37070BDC4F10C044B
:10061000C4F1200500FA04F320FA05F001FA04F20F
:1006200040EA020001F0004110EBD37041F10001FB
:100630005EEA430E08BF20EAD37070BDC4F1200506
:1006400000FA05F24EEA020E20FA04F301FA05F26E
:1006500043EA020321FA04F001F0004121FA04F216
:1006600020EA020000EBD3705EEA430E08BF20EAE6
:10067000D37070BD94F0000F0FD101F00046400020
:1006800041EB010111F4801F08BF013CF7D041EAA2
:10069000060195F0000F18BF704703F000465200A6
:1006A00043EB030313F4801F08BF013DF7D043EA77
:1006B0000603704794EA0C0F0CEA135518BF95EA2D
:1006C0000C0F0CD050EA410618BF52EA4306D1D1B4
:1006D00081EA030101F000414FF0000070BD50EAD3
:1006E000410606BF1046194652EA430619D094EA5D
:1006F0000C0F02D150EA013613D195EA0C0F05D147
:1007000052EA03361CBF104619460AD181EA03019A
:1007100001F0004141F0FE4141F470014FF0000052
:1007200070BD41F0FE4141F4780170BD70B54FF0ED
:10073000FF0C4CF4E06C1CEA11541DBF1CEA13556D
:1007400094EA0C0F95EA0C0F00F0A7F8A4EB05044F
:1007500081EA030E52EA03354FEA013100F0888046
:100760004FEA03334FF0805545EA131343EA12630F
:100770004FEA022245EA111545EA10654FEA0026C4
:100780000EF000419D4208BF964244F1FD0404F57D
:10079000407402D25B084FEA3202B61A65EB0305D9
:1007A0005B084FEA32024FF480104FF4002CB6EB96
:1007B000020E75EB030E22BFB61A754640EA0C0016
:1007C0005B084FEA3202B6EB020E75EB030E22BF56
:1007D000B61A754640EA5C005B084FEA3202B6EB97
:1007E000020E75EB030E22BFB61A754640EA9C0056
:1007F0005B084FEA3202B6EB020E75EB030E22BF26
:10080000B61A754640EADC0055EA060E18D04FEAE3
:10081000051545EA16754FEA06164FEAC30343EA83
:1008200052734FEAC2025FEA1C1CC0D111F4801F50
:100830000BD141EA00014FF000004FF0004CB6E749
:1008400011F4801F04BF01430020B4F1FD0C88BFE8
:10085000BCF5E06F3FF6AFAEB5EB030C04BFB6EBF3
:10086000020C5FEA500C50F1000041EB045170BDE6
:100870000EF0004E4EEA113114EB5C04C2BFD4EB13
:100880000C0541EA045170BD41F480114FF0000E97
:10089000013C90E645EA060E8DE60CEA135594EA13
:1008A0000C0F08BF95EA0C0F3FF43BAF94EA0C0F16
:1008B0000AD150EA01347FF434AF95EA0C0F7FF48B
:1008C00025AF104619462CE795EA0C0F06D152EADF
:1008D00003353FF4FDAE1046194622E750EA4106C3
:1008E00018BF52EA43067FF4C5AE50EA41047FF4D4
:1008F0000DAF52EA43057FF4EBAE12E74FF0FF3C39
:1009000006E000BF4FF0010C02E000BF4FF0010C09
:100910004DF804CD4FEA410C7FEA6C5C4FEA430C82
:1009200018BF7FEA6C5C1BD001B050EA410C0CBFD1
:1009300052EA430C91EA030F02BF90EA020F002033
:10094000704710F1000F91EA030F58BF994208BF9A
:1009500090422CBFD8176FEAE37040F00100704757
:100960004FEA410C7FEA6C5C02D150EA013C07D1AE
:100970004FEA430C7FEA6C5CD6D152EA033CD3D0F9
:100980005DF8040B704700BF8446104662468C46F3
:100990001946634600E000BF01B5FFF7B7FF002826
:1009A00048BF10F1000F01BD4DF808EDFFF7F4FF4F
:1009B0000CBF012000205DF808FB00BF4DF808EDDA
:1009C000FFF7EAFF34BF012000205DF808FB00BFFD
:1009D0004DF808EDFFF7E0FF94BF012000205DF81F
:1009E00008FB00BF4DF808EDFFF7CEFF94BF0120D4
:1009F00000205DF808FB00BF4DF808EDFFF7C4FFCD
:100A000034BF012000205DF808FB00BF4FEA410C15
:100A10007FEA6C5C02D150EA013C0AD14FEA430CF8
:100A20007FEA6C5C02D152EA033C02D14FF0000035
:100A300070474FF0010070474FEA410212F5001273
:100A400015D211D56FF47873B3EB625212D94FEA15
:100A5000C12343F0004343EA505311F0004F23FAFF
:100A600002F018BF404270474FF00000704750EA54
:100A7000013005D111F0004008BF6FF00040704711
:100A80004FF00000704700BF4FEA4102B2F1E0436F
:100A900024BFB3F5001CDCF1FE5C0DD901F0004C65
:100AA0004FEAC0024CEA5070B2F1004F40EB8300B5
:100AB00008BF20F00100704711F0804F21D113F1E1
:100AC0003872BCBF01F00040704741F480114FEA1A
:100AD0005252C2F11802C2F1200C10FA0CF320FAA3
:100AE00002F018BF40F001004FEAC1234FEAD323C0
:100AF00003FA0CFC40EA0C0023FA02F34FEA43032A
:100B0000CCE77FEA625307D150EA01331EBF4FF0B2
:100B1000FE4040F44000704701F0004040F0FE40CD
:100B200040F40000704700BF80F0004002E000BFCA
:100B300081F0004142001FBF5FEA410392EA030FC8
:100B40007FEA226C7FEA236C6AD04FEA1262D2EB12
:100B50001363C1BFD218414048404140B8BF5B4217
:100B6000192B88BF704710F0004F40F4000020F0B0
:100B70007F4018BF404211F0004F41F4000121F0C6
:100B80007F4118BF494292EA030F3FD0A2F1010210
:100B900041FA03FC10EB0C00C3F1200301FA03F14E
:100BA00000F0004302D5494260EB4000B0F5000F71
:100BB00013D3B0F1807F06D340084FEA310102F130
:100BC0000102FE2A51D2B1F1004F40EBC25008BFE2
:100BD00020F0010040EA03007047490040EB0000AC
:100BE000013A28BFB0F5000FEDD2B0FA80FCACF1AD
:100BF000080CB2EB0C0200FA0CF0AABF00EBC250DA
:100C000052421843BCBFD0401843704792F0000FC7
:100C100081F4000106BF80F400000132013BB5E71A
:100C20004FEA41037FEA226C18BF7FEA236C21D090
:100C300092EA030F04D092F0000F08BF08467047F5
:100C400090EA010F1CBF0020704712F07F4F04D1C3
:100C5000400028BF40F00040704712F100723CBFD6
:100C600000F50000704700F0004343F0FE4040F400
:100C7000000070477FEA226216BF08467FEA2363BE
:100C80000146420206BF5FEA412390EA010F40F4A9
:100C9000800070474FF0000304E000BF10F00043F5
:100CA00048BF40425FEA000C08BF704743F09643DC
:100CB00001464FF000001CE050EA010208BF7047F7
:100CC0004FF000030AE000BF50EA010208BF70477E
:100CD00011F0004302D5404261EB41015FEA010C93
:100CE00002BF84460146002043F0B64308BFA3F18B
:100CF0008053A3F50003BCFA8CF2083AA3EBC2536D
:100D000010DB01FA02FC634400FA02FCC2F120028B
:100D1000BCF1004F20FA02F243EB020008BF20F0C2
:100D20000100704702F1200201FA02FCC2F1200228
:100D300050EA4C0021FA02F243EB020008BF20EA1D
:100D4000DC7070474FEA4002B2F1FE4F0FD34FF014
:100D50009E03B3EB12620DD94FEA002343F0004328
:100D600010F0004F23FA02F018BF404270474FF0D6
:100D70000000704712F1610F01D1420205D110F05D
:100D8000004008BF6FF0004070474FF00000704710
:100D900080B582B000AF00224FF40071214801F00D
:100DA000DDFF012000F0F6FE01224FF400711D4826
:100DB00001F0D4FF00237B6023E01B4B1B781A4615
:100DC0007B6842FA03F303F00103002B05D00122F4
:100DD0004021144801F0C2FF04E0002240211148E4
:100DE00001F0BCFF01224FF480710E4801F0B6FF04
:100DF00000224FF480710B4801F0B0FF7B68013393
:100E00007B607B68072BD8DD01228021054801F03B
:100E1000A5FF00228021034801F0A0FF00BF083792
:100E2000BD4680BD000C01408802002080B582B024
:100E300000AF00222021214801F090FF012000F0A6
:100E4000A9FE012220211D4801F088FF00237B60BC
:100E500023E01B4B1B781A467B6842FA03F303F02E
:100E60000103002B06D001224FF40041154801F088
:100E700075FF05E000224FF40041124801F06EFFBB
:100E8000012210210D4801F069FF002210210B48BA
:100E900001F064FF7B6801337B607B68072BD8DD42
:100EA00001220821054801F059FF002208210348CA
:100EB00001F054FF00BF0837BD4680BD000C014063
:100EC000890200200008014080B584B000AF78603E
:100ED000396001224FF40051144801F03FFF1E20F9
:100EE00003F07AF90346FB603B687A681049F868BA
:100EF00003F04EFFB860BB689AB24FF47A73F9689A
:100F00000C4802F0A3FB642303220B49094802F0BA
:100F10009DFBF86803F068F900224FF40051034884
:100F200001F01CFF00BF1037BD4680BD001001401E
:100F3000F07C00083C0200200C000020B0B588B016
:100F400000AFF860B9607A6001224FF400512E487A
:100F500001F004FFB868FFF767FA04460D467868A9
:100F6000FFF750FA02460B464FF00000274905F004
:100F7000A9FF02460B4620462946FFF7ADFA024676
:100F80000B4610461946FFF757FD0346FB611E202E
:100F900003F022F90346BB617B68FA681C49B86913
:100FA00003F0F6FE78617B699AB24FF47A73B969FF
:100FB000184802F04BFB642303221749154802F03E
:100FC00045FBFB69FA681549B86903F0E1FE7861F1
:100FD0007B699AB24FF47A73B9690E4802F036FB16
:100FE000642303220C490B4802F030FBB86903F07C
:100FF000FBF800224FF40051034801F0AFFE00BFA0
:101000002037BD46B0BD00BF0010014000002440A5
:10101000FC7C00083C0200200C000020F07C000852
:1010200080B584B000AF7860396001224FF4005180
:10103000144801F093FE1E2003F0CEF80346FB6037
:101040003B687A681049F86803F0A2FEB860BB6894
:101050009AB24FF47A73F9680C4802F0F7FA6423F5
:1010600003220B49094802F0F1FAF86803F0BCF8D2
:1010700000224FF40051034801F070FE00BF10370A
:10108000BD4680BD00100140107D00083C020020DC
:101090000C00002080B500AF00BF0121804801F0A6
:1010A000C6F80346002BF8D07E4B7F4A01217C48CE
:1010B00000F09CFF0346002B01D000F001FB7A4BAF
:1010C0005B687A4A934223D1794B1B681B889BB299
:1010D0001846FFF7DFFD03461846FFF7A5F94FF066
:1010E00000024FF07F53FFF7F7F902460B46104618
:1010F0001946FFF7C9FC03466E4A13606D4B1B6827
:101100001846FFF71FFE034619466B48FFF7DCFE43
:10111000654B5B68694A93423DD101224FF400510F
:10112000674801F01BFE4FF47A7000F033FD654B09
:101130001B681B781846FFF7ADFD03465D4A136038
:101140005C4B1B681846FFF7FDFD034619465E48D9
:10115000FFF7BAFE574B1B681846FFF765F90246C2
:101160000B465A495A4803F013FE5948FEF7F0FF60
:1011700003469AB24FF47A735549564802F066FA1C
:1011800000224FF400514E4801F0E8FD4FF47A7010
:1011900000F000FD81E0444B5B684F4A93423AD136
:1011A00001224FF40051464801F0D8FD4FF47A7007
:1011B00000F0F0FC434B1B681B781846FFF76AFDF4
:1011C00003463C4A13603B4B1B68022219464348C6
:1011D000FFF7B4FE374B1B681846FFF725F90246A8
:1011E0000B463F493A4803F0D3FD3948FEF7B0FFBC
:1011F00003469AB24FF47A733549364802F026FA1C
:1012000000224FF400512E4801F0A8FD4FF47A70EF
:1012100000F0C0FC41E0244B5B68324A934224D189
:1012200001224FF40051264801F098FD4FF47A70E6
:1012300000F0B0FC2C4B1B681B781846FFF72AFD0A
:1012400003461C4A13601B4B1B68022219462748A1
:10125000FFF774FE00224FF40051194801F07EFDA3
:101260004FF47A7000F096FC17E000224FF4005122
:10127000134801F073FD0C4B5B681A461C49144877
:1012800003F086FD1248FEF763FF03469AB24FF45F
:101290007A730F490F4802F0D9F900BF80BD00BF33
:1012A000140200208C020020940200200004F01898
:1012B00008000020840200201C7D00080103F00CBF
:1012C0000010014000000020207D0008287D00085B
:1012D000B00200203C02002000EEFE183C7D000819
:1012E000487D000817F7FE1804000020607D000804
:1012F000687D000880B500AF00F0EAFB00F090F8D0
:1013000000F054F900F0D2F800F026F9344800F06B
:1013100029FE0346002B01D000F0D2F9314B002208
:101320001A70FFF783FD304B00221A70FFF730FD73
:101330004FF47A7000F02EFC2C4B1B68002B4CD124
:1013400001224FF400512A4801F008FD4FF47A7051
:1013500000F020FC00224FF40051254801F0FEFC73
:1013600000212448FFF7B0FD00212348FFF7ACFD22
:1013700000212248FFF7A8FD00212148FFF7A4FD26
:1013800000212048FFF7A0FD1F492048FFF748FE35
:101390001D491F48FFF744FE02224FF07E511D48B1
:1013A000FFF7CCFD02224FF07E511B48FFF7C6FD30
:1013B00002224FF07E511948FFF7C0FD0B4B1B680E
:1013C00001330A4A136001224FF40051084801F02A
:1013D000C5FC4FF47A7000F0DDFBFFF75BFEABE776
:1013E000140200208902002088020020E40200206C
:1013F000001001401C7D0008747D00087C7D000801
:10140000807D0008207D0008887D00088C7D000814
:10141000947D0008A07D0008607D00083C7D0008E8
:1014200080B590B000AF07F11803282200211846BC
:1014300003F011FD3B1D00221A605A609A60DA60C9
:101440001A610123BB614FF48033FB6100233B62CF
:101450000123BB6202237B634FF48033BB634FF4F1
:10146000E013FB6307F11803184601F08FFC0346F5
:10147000002B01D000F024F90F237B600223BB6016
:101480000023FB604FF480633B6100237B613B1DC5
:101490000221184601F0FCFE0346002B01D000F0AB
:1014A0000FF900BF4037BD4680BD000080B58AB04F
:1014B00000AF274B274A1A60254B48225A60244B1D
:1014C00000229A60224B0022DA60214B4FF48032D6
:1014D0001A611F4B00225A611D4B00221A761C4BC9
:1014E00000225A761A4B00229A76194B0022DA769D
:1014F000174B00221A77164B00225A77144800F037
:101500006DFB0346002B01D000F0DAF801233B62AB
:101510000A237B6101233B6100233B6000237B6046
:101520000023BB600023FB600023BB610123FB6140
:1015300000237B623B461946054800F04AFC0346FF
:10154000002B01D000F0BCF800BF2837BD4680BD9D
:10155000140200200064004080B500AF114B124A15
:101560001A60104B4FF416525A600E4B00229A60CC
:101570000C4B0022DA600B4B00221A61094B0C2243
:101580005A61084B00229A61064B0022DA61054835
:1015900002F00CF80346002B01D000F091F800BFD8
:1015A00080BD00BF3C0200200038014080B588B0FB
:1015B00000AF07F1100300221A605A609A60DA60E7
:1015C0003B4B9B693A4A43F010039361384B9B694C
:1015D00003F01003FB60FB68354B9B69344A43F012
:1015E00020039361324B9B6903F02003BB60BB680F
:1015F0002F4B9B692E4A43F0040393612C4B9B694C
:1016000003F004037B607B68294B9B69284A43F005
:1016100008039361264B9B6903F008033B603B681A
:1016200000224FF40051234801F098FB00224FF4B0
:101630000041214801F092FB01224FF4CC711F4878
:1016400001F08CFB002240211C4801F087FB4FF485
:1016500000533B6101237B610023BB610223FB61DB
:1016600007F110031946134801F0F4F94FF4004351
:101670003B6101237B610023BB610223FB6107F116
:10168000100319460C4801F0E5F94FF4EC733B6187
:1016900001237B610023BB610223FB6107F110037F
:1016A0001946064801F0D6F900BF2037BD4680BD77
:1016B000001002400010014000080140000C0140F1
:1016C00080B400AF72B600BFFEE7000080B485B002
:1016D00000AF154B9B69144A43F001039361124B11
:1016E0009B6903F00103BB60BB680F4BDB690E4ACB
:1016F00043F08053D3610C4BDB6903F080537B6074
:101700007B680A4B5B68FB60FB6823F0E063FB606F
:10171000FB6843F00073FB60044AFB68536000BF42
:101720001437BD4680BC70470010024000000140E5
:1017300080B588B000AF786007F1100300221A600E
:101740005A609A60DA607B681B68204A934239D1FC
:101750001F4BDB691E4A43F00073D3611C4BDB69EE
:1017600003F00073FB60FB68194B9B69184A43F058
:1017700004039361164B9B6903F00403BB60BB68D1
:101780004FF400633B6100237B610123BB6107F1E0
:10179000100319460F4801F05DF94FF480533B6187
:1017A00002237B610323FB6107F1100319460948FB
:1017B00001F050F900220021152001F062F81520F7
:1017C00001F07BF800BF2037BD4680BD00640040BB
:1017D000001002400008014080B588B000AF78607A
:1017E00007F1100300221A605A609A60DA607B6881
:1017F0001B68204A934239D11F4B9B691E4A43F410
:10180000804393611C4B9B6903F48043FB60FB683E
:10181000194B9B69184A43F004039361164B9B696B
:1018200003F00403BB60BB684FF400733B61022309
:101830007B610323FB6107F1100319460F4801F098
:1018400009F94FF480633B6100237B610023BB6196
:1018500007F110031946094801F0FCF800220021A5
:10186000252001F00EF8252001F027F800BF2037D1
:10187000BD4680BD00380140001002400008014014
:1018800080B400AFFEE780B400AFFEE780B400AFE5
:10189000FEE780B400AFFEE780B400AFFEE780B49F
:1018A00000AF00BFBD4680BC704780B400AF00BF32
:1018B000BD4680BC704780B400AF00BFBD4680BC51
:1018C000704780B500AF00F049F900BF80BD00004F
:1018D00080B500AF024800F0D1FC00BF80BD00BF62
:1018E0001402002080B500AF024801F03BFF00BFAA
:1018F00080BD00BF3C02002080B400AF0123184629
:10190000BD4680BC704780B582B000AF786039605A
:1019100003F004FB034616221A604FF0FF3318460B
:101920000837BD4680BD80B582B000AF78604FF00B
:10193000FF317868FFF7E7FFFEE780B586B000AFBC
:10194000F860B9607A6000237B610AE0AFF3008041
:101950000146BB685A1CBA60CAB21A707B6901336F
:101960007B617A697B689A42F0DB7B68184618379E
:10197000BD4680BD80B586B000AFF860B9607A60C2
:1019800000237B6109E0BB685A1CBA601B781846CB
:10199000AFF300807B6901337B617A697B689A428F
:1019A000F1DB7B6818461837BD4680BD80B483B034
:1019B00000AF78604FF0FF3318460C37BD4680BC4F
:1019C000704780B483B000AF786039603B684FF4F3
:1019D00000525A60002318460C37BD4680BC704741
:1019E00080B483B000AF7860012318460C37BD4641
:1019F00080BC704780B485B000AFF860B9607A6091
:101A0000002318461437BD4680BC704780B586B0A9
:101A100000AF7860144A154BD31A7B617B693B6138
:101A2000134B1B68002B02D1114B124A1A60104B4A
:101A30001A687B6813443A699A4207D203F06EFA37
:101A400003460C221A604FF0FF3309E0084B1B6875
:101A5000FB60074B1A687B681344054A1360FB68F8
:101A600018461837BD4680BD005000200004000015
:101A7000E80200204004002080B400AF00BFBD4653
:101A800080BC7047FFF7F8FF0B480C490C4A002355
:101A900002E0D458C4500433C4188C42F9D3094A24
:101AA000094C002301E013600432A242FBD303F08F
:101AB0003BFAFFF71FFC704700000020F8010020F0
:101AC00078810008F80100203C040020FEE70000B7
:101AD00080B500AF084B1B68074A43F01003136042
:101AE000032000F0C3FE0F2000F008F8FFF7EEFD22
:101AF0000023184680BD00BF0020024080B582B0A0
:101B000000AF7860124B1A68124B1B7819464FF4DD
:101B10007A73B3FBF1F3B2FBF3F3184600F0DBFE8C
:101B20000346002B01D001230EE07B680F2B0AD85F
:101B3000002279684FF0FF3000F0A3FE064A7B6870
:101B40001360002300E0012318460837BD4680BD1E
:101B500010000020180000201400002080B400AF06
:101B6000054B1B781A46054B1B681344034A136048
:101B700000BFBD4680BC704718000020EC0200206A
:101B800080B400AF024B1B681846BD4680BC70474E
:101B9000EC02002080B584B000AF7860FFF7F0FF62
:101BA000B8607B68FB60FB68B3F1FF3F05D00A4B70
:101BB0001B781A46FB681344FB6000BFFFF7E0FF89
:101BC0000246BB68D31AFA689A42F7D800BF00BF32
:101BD0001037BD4680BD00BF1800002080B584B01E
:101BE00000AF78607B68002B01D10123EDE07B68BA
:101BF00093F82030DBB2002B02D17868FFF798FD14
:101C00007B681B681A687B681B6842F001021A60D7
:101C1000FFF7B6FFF86012E0FFF7B2FF0246FB687D
:101C2000D31A0A2B0BD97B685B6A43F400327B68BA
:101C30005A627B68052283F820200123C5E07B6877
:101C40001B685B6803F00103002BE5D07B681B6811
:101C50001A687B681B6822F002021A60FFF790FF87
:101C6000F86012E0FFF78CFF0246FB68D31A0A2BDC
:101C70000BD97B685B6A43F400327B685A627B68ED
:101C8000052283F8202001239FE07B681B685B68A6
:101C900003F00203002BE5D17B681B7E012B08D1EA
:101CA0007B681B681A687B681B6842F080021A60B8
:101CB00007E07B681B681A687B681B6822F080025B
:101CC0001A607B685B7E012B08D17B681B681A68F1
:101CD0007B681B6842F040021A6007E07B681B6863
:101CE0001A687B681B6822F040021A607B689B7E42
:101CF000012B08D17B681B681A687B681B6842F05F
:101D000020021A6007E07B681B681A687B681B6802
:101D100022F020021A607B68DB7E012B08D17B68F1
:101D20001B681A687B681B6822F010021A6007E0C3
:101D30007B681B681A687B681B6842F010021A6097
:101D40007B681B7F012B08D17B681B681A687B6846
:101D50001B6842F008021A6007E07B681B681A687B
:101D60007B681B6822F008021A607B685B7F012B8E
:101D700008D17B681B681A687B681B6842F0040204
:101D80001A6007E07B681B681A687B681B6822F092
:101D900004021A607B689A687B68DB681A437B6878
:101DA0001B691A437B685B6942EA03017B685B68D5
:101DB0005A1E7B681B680A43DA617B6800225A62FC
:101DC0007B68012283F82020002318461037BD4687
:101DD00080BD80B487B000AF786039607B681B68D5
:101DE0007B617B6893F82030FB74FB7C012B03D074
:101DF000FB7C022B40F0AA807B69D3F8003243F0D1
:101E000001027B69C3F800223B685B6903F01F0392
:101E1000012202FA03F3FB607B69D3F81C22FB6802
:101E2000DB431A407B69C3F81C223B68DB69002B4B
:101E300023D17B69D3F80C22FB68DB431A407B6912
:101E4000C3F80C223B68DB6819043B685B689BB2F3
:101E50003A68526919437B69483243F832103B684B
:101E60009B6819043B681B689AB23B685B690A432C
:101E700079694833DB000B445A603B68DB69012B0E
:101E800022D17B69D3F80C22FB681A437B69C3F823
:101E90000C223B681B6819043B685B689BB23A687C
:101EA000526919437B69483243F832103B689B689A
:101EB00019043B68DB689AB23B685B690A4379693D
:101EC0004833DB000B445A603B689B69002B09D107
:101ED0007B69D3F80422FB68DB431A407B69C3F8B3
:101EE000042207E07B69D3F80422FB681A437B696C
:101EF000C3F804223B681B69002B09D17B69D3F826
:101F00001422FB68DB431A407B69C3F8142207E004
:101F10007B69D3F81422FB681A437B69C3F8142247
:101F20003B681B6A012B07D17B69D3F81C22FB6835
:101F30001A437B69C3F81C227B69D3F8003223F073
:101F400001027B69C3F80022002306E07B685B6A1C
:101F500043F480227B685A62012318461C37BD4631
:101F600080BC704780B584B000AF78607B6893F820
:101F70002030DBB2012B2ED17B68022283F8202097
:101F80007B681B681A687B681B6822F001021A6074
:101F9000FFF7F6FDF86012E0FFF7F2FD0246FB687E
:101FA000D31A0A2B0BD97B685B6A43F400327B6837
:101FB0005A627B68052283F82020012312E07B68A7
:101FC0001B685B6803F00103002BE5D17B680022EE
:101FD0005A62002306E07B685B6A43F400227B6858
:101FE0005A62012318461037BD4680BD80B487B0C1
:101FF00000AFF860B9607A603B60FB6893F820300E
:10200000FB75FB7D012B03D0FB7D022B40F0038190
:10201000BB68002B0ED1FB681B68DB6803F0030371
:10202000002B16D1FB685B6A43F40012FB685A620E
:102030000123F7E0FB681B681B6903F00303002B17
:1020400007D1FB685B6A43F40012FB685A62012304
:10205000E8E0FB681A68BB681B331B0113441B686C
:1020600003F004027B689A607B689B68002B0CD1AC
:10207000FB681A68BB681B331B0113441B685B0DAC
:10208000C3F30A027B681A600BE0FB681A68BB683E
:102090001B331B0113441B68DB0823F060427B6881
:1020A0005A60FB681A68BB681B331B0113441B682A
:1020B00003F002027B68DA60FB681A68BB681B33B6
:1020C0001B01134404331B6803F00803002B03D0E7
:1020D0007B6808221A610BE0FB681A68BB681B3337
:1020E0001B01134404331B6803F00F027B681A6161
:1020F000FB681A68BB681B331B01134404331B685D
:102100001B0ADAB27B689A61FB681A68BB681B33EA
:102110001B01134404331B681B0C9AB27B685A6181
:10212000FB681A68BB681B01134403F5DC731B686A
:10213000DAB23B681A70FB681A68BB681B0113446B
:1021400003F5DC731B681A0A3B680133D2B21A70BC
:10215000FB681A68BB681B01134403F5DC731B683A
:102160001A0C3B680233D2B21A70FB681A68BB685B
:102170001B01134403F5DC731B681A0E3B68033321
:10218000D2B21A70FB681A68BB681B01134403F5CE
:10219000DE731A683B680433D2B21A70FB681A689F
:1021A000BB681B01134403F5DE731B681A0A3B6806
:1021B0000533D2B21A70FB681A68BB681B0113445E
:1021C00003F5DE731B681A0C3B680633D2B21A7033
:1021D000FB681A68BB681B01134403F5DE731B68B8
:1021E0001A0E3B680733D2B21A70BB68002B08D1B5
:1021F000FB681B68DA68FB681B6842F02002DA6043
:1022000007E0FB681B681A69FB681B6842F0200244
:102210001A61002306E0FB685B6A43F48022FB68D6
:102220005A62012318461C37BD4680BC704780B4F3
:1022300085B000AF786039600023FB607B6893F85D
:102240002030FB72FB7A012B02D0FB7A022B0FD1DC
:102250003B68002B06D17B681B68DB6803F0030337
:10226000FB6005E07B681B681B6903F00303FB60F0
:10227000FB6818461437BD4680BC704780B58AB0ED
:1022800000AF786000237B627B681B685B693B6200
:102290007B681B685B68FB617B681B689B68BB6134
:1022A0007B681B68DB687B617B681B681B693B6123
:1022B0007B681B689B69FB603B6A03F00103002B92
:1022C0007CD0BB6903F00103002B23D07B681B6823
:1022D00001229A60BB6903F00203002B03D07868E7
:1022E00000F083F916E0BB6903F00403002B04D06F
:1022F0007B6A43F400637B620CE0BB6903F0080374
:10230000002B04D07B6A43F480537B6202E0786840
:1023100000F086F9BB6903F48073002B24D07B683E
:102320001B684FF480729A60BB6903F40073002B42
:1023300003D0786800F062F916E0BB6903F48063AB
:10234000002B04D07B6A43F400537B620CE0BB6932
:1023500003F40063002B04D07B6A43F480437B6268
:1023600002E0786800F065F9BB6903F48033002B64
:1023700024D07B681B684FF480329A60BB6903F4F9
:102380000033002B03D0786800F041F916E0BB69F8
:1023900003F48023002B04D07B6A43F400437B6268
:1023A0000CE0BB6903F40023002B04D07B6A43F4E8
:1023B00080337B6202E0786800F044F93B6A03F006
:1023C0000803002B0CD07B6903F01003002B07D00F
:1023D0007B6A43F400737B627B681B681022DA60BF
:1023E0003B6A03F00403002B0BD07B6903F0080366
:1023F000002B06D07B681B680822DA60786800F042
:1024000033F93B6A03F00203002B09D07B681B6899
:10241000DB6803F00303002B02D0786800F01BF99F
:102420003B6A03F04003002B0CD03B6903F0100320
:10243000002B07D07B6A43F480637B627B681B6858
:1024400010221A613B6A03F02003002B0BD03B697A
:1024500003F00803002B06D07B681B6808221A6172
:10246000786800F013F93B6A03F01003002B09D0E1
:102470007B681B681B6903F00303002B02D078689C
:1024800000F0FBF83B6A03F40033002B0BD0FB6930
:1024900003F01003002B06D07B681B6810225A60E3
:1024A000786800F0FCF83B6A03F48033002B0BD013
:1024B000FB6903F00803002B06D07B681B68082229
:1024C0005A60786800F0F4F83B6A03F40043002B8C
:1024D0007BD0FB6903F00403002B72D03B6A03F44A
:1024E0008073002B08D0FB6803F00103002B03D09E
:1024F0007B6A43F001037B623B6A03F40073002BA9
:1025000008D0FB6803F00203002B03D07B6A43F082
:1025100002037B623B6A03F48063002B08D0FB68F4
:1025200003F00403002B03D07B6A43F004037B62B7
:102530003B6A03F40063002B43D0FB6803F0700395
:10254000002B3ED0FB6803F07003602B2BD0602B78
:102550002ED8502B22D0502B2AD8402B19D0402BCC
:1025600026D8302B10D0302B22D8102B02D0202B85
:1025700005D01DE07B6A43F008037B6219E07B6AAB
:1025800043F010037B6214E07B6A43F020037B621C
:102590000FE07B6A43F040037B620AE07B6A43F012
:1025A00080037B6205E07B6A43F480737B6200E01A
:1025B00000BF7B681B689A697B681B6822F0700209
:1025C0009A617B681B6804225A607B6A002B08D0E2
:1025D0007B685A6A7B6A1A437B685A62786800F0A3
:1025E00070F800BF2837BD4680BD80B483B000AF0F
:1025F000786000BF0C37BD4680BC704780B483B0A4
:1026000000AF786000BF0C37BD4680BC704780B417
:1026100083B000AF786000BF0C37BD4680BC704708
:1026200080B483B000AF786000BF0C37BD4680BC7B
:10263000704780B483B000AF786000BF0C37BD46F0
:1026400080BC704780B483B000AF786000BF0C37A7
:10265000BD4680BC704780B483B000AF786000BFD7
:102660000C37BD4680BC704780B483B000AF786043
:1026700000BF0C37BD4680BC704780B483B000AF4C
:10268000786000BF0C37BD4680BC704780B483B013
:1026900000AF786000BF0C37BD4680BC704780B487
:1026A00083B000AF786000BF0C37BD4680BC704778
:1026B00080B483B000AF786000BF0C37BD4680BCEB
:1026C000704780B483B000AF786000BF0C37BD4660
:1026D00080BC704780B485B000AF78607B6803F041
:1026E0000703FB600C4BDB68BB60BA684FF6FF0367
:1026F0001340BB60FB681A02BB68134343F0BF631F
:1027000043F40033BB60044ABB68D36000BF143796
:10271000BD4680BC704700BF00ED00E080B400AF54
:10272000044BDB681B0A03F007031846BD4680BC58
:10273000704700BF00ED00E080B483B000AF0346F7
:10274000FB7197F90730002B0BDBFB7903F01F02BD
:10275000064997F907305B09012000FA02F241F8B7
:10276000232000BF0C37BD4680BC704700E100E06D
:1027700080B483B000AF03463960FB7197F907302E
:10278000002B0ADB3B68DAB20C4997F907301201DB
:10279000D2B20B4483F800230AE03B68DAB208495E
:1027A000FB7903F00F03043B1201D2B20B441A76FB
:1027B00000BF0C37BD4680BC704700BF00E100E0A1
:1027C00000ED00E080B489B000AFF860B9607A60D5
:1027D000FB6803F00703FB61FB69C3F10703042BEC
:1027E00028BF0423BB61FB690433062B02D9FB69B4
:1027F000033B00E000237B614FF0FF32BB6902FA2C
:1028000003F3DA43BB681A407B699A404FF0FF310B
:102810007B6901FA03F3D9437B680B4013431846E5
:102820002437BD4680BC704780B582B000AF786069
:102830007B68013BB3F1807F01D301230FE00A4A9B
:102840007B68013B53600F214FF0FF30FFF790FF93
:10285000054B00229A60044B07221A600023184699
:102860000837BD4680BD00BF10E000E080B582B0F3
:1028700000AF78607868FFF72DFF00BF0837BD46CE
:1028800080BD80B586B000AF0346B9607A60FB7347
:1028900000237B61FFF742FF78617A68B968786945
:1028A000FFF790FF024697F90F3011461846FFF7E1
:1028B0005FFF00BF1837BD4680BD80B582B000AF56
:1028C0000346FB7197F907301846FFF735FF00BF45
:1028D0000837BD4680BD80B582B000AF78607868AB
:1028E000FFF7A2FF034618460837BD4680BD80B4F7
:1028F00085B000AF78600023FB737B6893F82130CC
:10290000DBB2022B08D07B6804229A637B6800222A
:1029100083F82020012320E07B681B681A687B680D
:102920001B6822F00E021A607B681B681A687B68BD
:102930001B6822F001021A607B681A6C7B68DB6BF3
:10294000012101FA02F25A607B68012283F82120FA
:102950007B68002283F82020FB7B18461437BD4695
:1029600080BC704780B584B000AF78600023FB73F3
:102970007B6893F82130DBB2022B05D07B68042200
:102980009A630123FB7351E07B681B681A687B68BC
:102990001B6822F00E021A607B681B681A687B684D
:1029A0001B6822F001021A607B681B68224A93426E
:1029B00029D07B681B68214A934222D07B681B6820
:1029C0001F4A93421AD07B681B681E4A934212D05A
:1029D0007B681B681C4A93420AD07B681B681B4AB1
:1029E000934202D14FF480130EE04FF080730BE05E
:1029F0004FF4803308E04FF4805305E04FF48073C8
:102A000002E0102300E00123114A53607B68012299
:102A100083F821207B68002283F820207B685B6B91
:102A2000002B03D07B685B6B78689847FB7B18466C
:102A30001037BD4680BD00BF080002401C000240A8
:102A40003000024044000240580002406C00024046
:102A50000000024080B48BB000AF78603960002382
:102A60007B6200233B6269E101227B6A02FA03F385
:102A7000FB613B681B68FA691340BB61BA69FB697B
:102A80009A4240F058813B685B689A4A93425ED014
:102A9000984A934275D8984A934258D0964A93429E
:102AA0006FD8964A934252D0944A934269D8944A36
:102AB00093424CD0924A934263D8924A934246D072
:102AC000904A93425DD8122B2AD8122B59D801A2D2
:102AD00052F823F04F2B0008292B00083B2B00084D
:102AE0007D2B0008832B0008832B0008832B000814
:102AF000832B0008832B0008832B0008832B0008FE
:102B0000832B0008832B0008832B0008832B0008ED
:102B1000832B0008832B0008312B0008452B00086D
:102B2000794A934213D02CE03B68DB683B6229E092
:102B30003B68DB6804333B6224E03B68DB680833B6
:102B40003B621FE03B68DB680C333B621AE03B688A
:102B50009B68002B02D104233B6213E03B689B6817
:102B6000012B05D108233B627B68FA691A6109E0F1
:102B700008233B627B68FA695A6103E000233B62E9
:102B800000E000BFBB69FF2B01D87B6801E07B68D8
:102B900004337B61BB69FF2B02D87B6A9B0002E098
:102BA0007B6A083B9B003B617B691A680F213B698C
:102BB00001FA03F3DB431A40396A3B6901FA03F374
:102BC0001A437B691A603B685B6803F08053002BF3
:102BD00000F0B1804D4B9B694C4A43F00103936177
:102BE0004A4B9B6903F00103BB60BB68484A7B6AA0
:102BF0009B08023352F82330FB607B6A03F0030327
:102C00009B000F2202FA03F3DB43FA681340FB60D8
:102C10007B68404A934213D07B683F4A93420DD071
:102C20007B683E4A934207D07B683D4A934201D17C
:102C3000032306E0042304E0022302E0012300E072
:102C400000237A6A02F0030292009340FA68134369
:102C5000FB602F497B6A9B080233FA6841F8232006
:102C60003B685B6803F48013002B06D02D4B9A68F9
:102C70002C49BB6913438B6006E02A4B9A68BB69F9
:102C8000DB43284913408B603B685B6803F4001307
:102C9000002B06D0234BDA682249BB691343CB6073
:102CA00006E0204BDA68BB69DB431E491340CB606A
:102CB0003B685B6803F40033002B06D0194B5A685D
:102CC0001849BB6913434B6006E0164B5A68BB6951
:102CD000DB43144913404B603B685B6803F480336B
:102CE000002B21D00F4B1A680E49BB6913430B60B0
:102CF00021E000BF0000321000003110000022105F
:102D000000002110000012100000111000100240FD
:102D10000000014000080140000C0140001001408B
:102D200000140140000401400B4B1A68BB69DB43EF
:102D3000094913400B607B6A01337B623B681A6868
:102D40007B6A22FA03F3002B7FF48EAE00BF00BF34
:102D50002C37BD4680BC70470004014080B483B06E
:102D600000AF78600B467B8013467B707B78002B2E
:102D700003D07A887B681A6103E07B881A047B6839
:102D80001A6100BF0C37BD4680BC704780B586B065
:102D900000AF78607B68002B01D1012372E27B6871
:102DA0001B6803F00103002B00F08780924B5B68E7
:102DB00003F00C03042B0CD08F4B5B6803F00C0367
:102DC000082B12D18C4B5B6803F48033B3F5803F42
:102DD0000BD1894B1B6803F40033002B6CD07B684C
:102DE0005B68002B68D101234CE27B685B68B3F51C
:102DF000803F06D1804B1B687F4A43F480331360C9
:102E00002EE07B685B68002B0CD17B4B1B687A4AF9
:102E100023F480331360784B1B68774A23F48023B4
:102E200013601DE07B685B68B3F5A02F0CD1724B7B
:102E30001B68714A43F4802313606F4B1B686E4A12
:102E400043F4803313600BE06B4B1B686A4A23F436
:102E500080331360684B1B68674A23F48023136038
:102E60007B685B68002B13D0FEF78AFE386108E0B0
:102E7000FEF786FE02463B69D31A642B01D9032371
:102E800000E25D4B1B6803F40033002BF0D014E02C
:102E9000FEF776FE386108E0FEF772FE02463B69F7
:102EA000D31A642B01D90323ECE1534B1B6803F4C1
:102EB0000033002BF0D100E000BF7B681B6803F0FB
:102EC0000203002B63D04C4B5B6803F00C03002B18
:102ED0000BD0494B5B6803F00C03082B1CD1464B0D
:102EE0005B6803F48033002B16D1434B1B6803F05F
:102EF0000203002B05D07B681B69012B01D0012345
:102F0000C0E13D4B1B6823F0F8027B685B69DB0086
:102F1000394913430B603AE07B681B69002B20D0D2
:102F2000364B01221A60FEF72BFE386108E0FEF7EF
:102F300027FE02463B69D31A022B01D90323A1E1E4
:102F40002D4B1B6803F00203002BF0D02A4B1B68AB
:102F500023F0F8027B685B69DB00274913430B60B1
:102F600015E0264B00221A60FEF70AFE386108E0E1
:102F7000FEF706FE02463B69D31A022B01D9032352
:102F800080E11D4B1B6803F00203002BF0D17B682E
:102F90001B6803F00803002B3AD07B689B69002B69
:102FA00019D0174B01221A60FEF7EAFD386108E0DC
:102FB000FEF7E6FD02463B69D31A022B01D9032333
:102FC00060E10D4B5B6A03F00203002BF0D001209F
:102FD00000F0CEFA1CE00A4B00221A60FEF7D0FD8A
:102FE00038610FE0FEF7CCFD02463B69D31A022B95
:102FF00008D9032346E100BF00100240000042420E
:1030000080044242924B5B6A03F00203002BE9D139
:103010007B681B6803F00403002B00F0A6800023EC
:10302000FB758B4BDB6903F08053002B0DD1884B74
:10303000DB69874A43F08053D361854BDB6903F03A
:103040008053BB60BB680123FB75824B1B6803F494
:103050008073002B18D17F4B1B687E4A43F480732A
:103060001360FEF78DFD386108E0FEF789FD02462A
:103070003B69D31A642B01D9032303E1754B1B6809
:1030800003F48073002BF0D07B68DB68012B06D142
:103090006F4B1B6A6E4A43F0010313622DE07B689D
:1030A000DB68002B0CD16A4B1B6A694A23F00103D1
:1030B0001362674B1B6A664A23F0040313621CE029
:1030C0007B68DB68052B0CD1614B1B6A604A43F0BF
:1030D000040313625E4B1B6A5D4A43F001031362F3
:1030E0000BE05B4B1B6A5A4A23F001031362584BF7
:1030F0001B6A574A23F0040313627B68DB68002BCA
:1031000015D0FEF73DFD38610AE0FEF739FD0246B5
:103110003B69D31A41F28832934201D90323B1E0CB
:103120004B4B1B6A03F00203002BEED014E0FEF7BA
:1031300027FD38610AE0FEF723FD02463B69D31AFA
:1031400041F28832934201D903239BE0404B1B6A32
:1031500003F00203002BEED1FB7D012B05D13C4B8C
:10316000DB693B4A23F08053D3617B68DB69002B2A
:1031700000F08780364B5B6803F00C03082B61D0AE
:103180007B68DB69022B46D1334B00221A60FEF7C5
:10319000F7FC386108E0FEF7F3FC02463B69D31AFE
:1031A000022B01D903236DE0294B1B6803F0007348
:1031B000002BF0D17B681B6AB3F5803F08D1244B0C
:1031C0005B6823F400327B689B68214913434B60A2
:1031D0001F4B5B6823F474127B68196A7B685B6A17
:1031E0000B431B4913434B601B4B01221A60FEF734
:1031F000C7FC386108E0FEF7C3FC02463B69D31AFE
:10320000022B01D903233DE0114B1B6803F000732F
:10321000002BF0D035E0104B00221A60FEF7B0FC16
:10322000386108E0FEF7ACFC02463B69D31A022B7A
:1032300001D9032326E0064B1B6803F00073002B23
:10324000F0D11EE07B68DB69012B07D1012319E077
:103250000010024000700040600042420B4B5B686F
:10326000FB60FB6803F480327B681B6A9A4206D1DC
:10327000FB6803F470127B685B6A9A4201D00123F9
:1032800000E0002318461837BD4680BD00100240FC
:1032900080B584B000AF786039607B68002B01D1C5
:1032A0000123D0E06A4B1B6803F007033A689A4297
:1032B00010D9674B1B6823F0070265493B6813432D
:1032C0000B60634B1B6803F007033A689A4201D016
:1032D0000123B8E07B681B6803F00203002B20D0B9
:1032E0007B681B6803F00403002B05D0594B5B6817
:1032F000584A43F4E06353607B681B6803F008039B
:10330000002B05D0534B5B68524A43F46053536023
:10331000504B5B6823F0F0027B689B684D49134378
:103320004B607B681B6803F00103002B40D07B6877
:103330005B68012B07D1474B1B6803F40033002B5C
:1033400015D101237FE07B685B68022B07D1414BDD
:103350001B6803F00073002B09D1012373E03D4B80
:103360001B6803F00203002B01D101236BE0394BF2
:103370005B6823F003027B685B68364913434B604C
:10338000FEF7FEFBF8600AE0FEF7FAFB0246FB6878
:10339000D31A41F28832934201D9032353E02D4BD3
:1033A0005B6803F00C027B685B689B009A42EBD180
:1033B000274B1B6803F007033A689A4210D2244B4C
:1033C0001B6823F0070222493B6813430B60204B24
:1033D0001B6803F007033A689A4201D0012332E0E8
:1033E0007B681B6803F00403002B08D0194B5B6853
:1033F00023F4E0627B68DB68164913434B607B680B
:103400001B6803F00803002B09D0124B5B6823F400
:1034100060527B681B69DB000E4913434B6000F070
:1034200021F802460B4B5B681B0903F00F030A49A6
:10343000CB5C22FA03F3094A1360094B1B68184658
:10344000FEF75CFB002318461037BD4680BD00BF69
:103450000020024000100240A47D0008100000205F
:103460001400002080B487B000AF0023FB6000236D
:10347000BB6000237B6100237B6000233B611E4B0C
:103480005B68FB60FB6803F00C03042B02D0082B85
:1034900003D027E0194B3B6127E0FB689B0C03F04E
:1034A0000F03174AD35C7B60FB6803F48033002B67
:1034B00010D0114B5B685B0C03F00103114AD35C25
:1034C000BB607B680D4A03FB02F2BB68B2FBF3F3FF
:1034D0007B6104E07B680C4A02FB03F37B617B6940
:1034E0003B6102E0054B3B6100BF3B6918461C375E
:1034F000BD4680BC704700BF0010024000127A0039
:10350000BC7D0008CC7D000800093D0080B400AF00
:10351000024B1B681846BD4680BC70471000002057
:1035200080B500AFFFF7F2FF0246054B5B681B0A50
:1035300003F007030349CB5C22FA03F3184680BD6E
:1035400000100240B47D000880B500AFFFF7DEFF39
:103550000246054B5B68DB0A03F007030349CB5CBB
:1035600022FA03F3184680BD00100240B47D000823
:1035700080B485B000AF78600A4B1B680A4AA2FB92
:1035800003235B0A7A6802FB03F3FB6000BFFB685E
:103590005A1EFA60002BF9D100BF00BF1437BD4698
:1035A00080BC704710000020D34D621080B582B0FF
:1035B00000AF78607B68002B01D1012342E07B687B
:1035C00093F84130DBB2002B06D17B68002283F8F0
:1035D00040207868FEF700F97B68242283F84120B8
:1035E0007B681B68DA687B681B6822F40052DA602B
:1035F000786800F063FD7B681B681A697B681B684C
:1036000022F490421A617B681B685A697B681B68C8
:1036100022F02A025A617B681B68DA687B681B68A3
:1036200042F40052DA607B6800225A647B682022F0
:1036300083F841207B68202283F842207B680022A7
:103640005A63002318460837BD4680BD80B58AB04E
:1036500002AFF860B9603B601346FB8000237B61DA
:10366000FB6893F84130DBB2202B75D1BB68002B8F
:1036700002D0FB88002B01D101236EE0FB68002201
:103680005A64FB68212283F84120FEF779FA7861B9
:10369000FB68FA889A84FB68FA88DA84FB689B687E
:1036A000B3F5805F08D1FB681B69002B04D10023B0
:1036B000FB61BB68BB6103E0BB68FB610023BB61CE
:1036C0002EE03B6800937B6900228021F86800F0BF
:1036D00001FB0346002B05D0FB68202283F8412024
:1036E00003233AE0FB69002B0BD1BB691B881A4608
:1036F000FB681B68C2F308025A60BB690233BB61F6
:1037000007E0FB691A78FB681B685A60FB690133A4
:10371000FB61FB68DB8C9BB2013B9AB2FB68DA84ED
:10372000FB68DB8C9BB2002BCBD13B6800937B69A1
:1037300000224021F86800F0CDFA0346002B05D0A6
:10374000FB68202283F84120032306E0FB68202247
:1037500083F84120002300E0022318462037BD46AD
:1037600080BD000080B5BAB000AF78607B681B6890
:103770001B68C7F8E4307B681B68DB68C7F8E0307B
:103780007B681B685B69C7F8DC300023C7F8D8305A
:103790000023C7F8D430D7F8E43003F00F03C7F89C
:1037A000D830D7F8D830002B0FD1D7F8E43003F059
:1037B0002003002B09D0D7F8E03003F02003002BC2
:1037C00003D0786800F0BCFB5BE2D7F8D830002B60
:1037D00000F0DE80D7F8DC3003F00103002B06D1C7
:1037E000D7F8E03003F49073002B00F0D180D7F8C5
:1037F000E43003F00103002B0BD0D7F8E03003F4E2
:103800008073002B05D07B685B6C43F001027B6802
:103810005A64D7F8E43003F00403002B0BD0D7F838
:10382000DC3003F00103002B05D07B685B6C43F0B8
:1038300002027B685A64D7F8E43003F00203002BDD
:103840000BD0D7F8DC3003F00103002B05D07B68E8
:103850005B6C43F004027B685A64D7F8E43003F0F1
:103860000803002B11D0D7F8E03003F02003002B21
:1038700005D1D7F8DC3003F00103002B05D07B68BD
:103880005B6C43F008027B685A647B685B6C002BBE
:1038900000F0F281D7F8E43003F02003002B08D0C9
:1038A000D7F8E03003F02003002B02D0786800F056
:1038B00047FB7B681B685B6903F04003002B14BF68
:1038C00001230023DBB2C7F8D4307B685B6C03F0C4
:1038D0000803002B03D1D7F8D430002B4FD07868E1
:1038E00000F051FA7B681B685B6903F04003002B12
:1038F00041D07B681B681433C7F89C30D7F89C30E4
:1039000053E8003FC7F89830D7F8983023F04003C9
:10391000C7F8D0307B681B681433D7F8D020C7F8BD
:10392000A820C7F8A430D7F8A410D7F8A82041E8F9
:103930000023C7F8A030D7F8A030002BD9D17B687E
:10394000DB6B002B13D07B68DB6B7E4A5A637B6892
:10395000DB6B1846FFF706F80346002B16D07B6892
:10396000DB6B5B6B7A68D26B104698470EE0786829
:1039700000F09CF90AE0786800F098F906E07868B1
:1039800000F094F97B6800225A6475E100BF73E18E
:103990007B681B6B012B40F04F81D7F8E43003F0BC
:1039A0001003002B00F04881D7F8E03003F010033B
:1039B000002B00F041810023BB607B681B681B6803
:1039C000BB607B681B685B68BB60BB687B681B680F
:1039D0005B6903F04003002B00F0B6807B68DB6B73
:1039E0001B685B68A7F8BE30B7F8BE30002B00F04C
:1039F00045817B689B8DB7F8BE209A4280F03E815E
:103A00007B68B7F8BE20DA857B68DB6B9B69202B6F
:103A100000F088807B681B680C33C7F88830D7F8C3
:103A2000883053E8003FC7F88430D7F8843023F457
:103A30008073C7F8B8307B681B680C33D7F8B820A0
:103A4000C7F89420C7F89030D7F89010D7F8942092
:103A500041E80023C7F88C30D7F88C30002BD9D13F
:103A60007B681B6814337B677B6F53E8003F3B67C1
:103A70003B6F23F00103C7F8B4307B681B68143335
:103A8000D7F8B420C7F88020FB67F96FD7F88020FB
:103A900041E80023BB67BB6F002BE1D17B681B684B
:103AA00014333B663B6E53E8003FFB65FB6D23F030
:103AB0004003C7F8B0307B681B681433D7F8B020D8
:103AC000FA66BB66B96EFA6E41E800237B667B6ED0
:103AD000002BE3D17B68202283F842207B68002200
:103AE0001A637B681B680C33FB64FB6C53E8003F74
:103AF000BB64BB6C23F01003C7F8AC307B681B6859
:103B00000C33D7F8AC20BA657B65796DBA6D41E8A6
:103B100000233B653B6D002BE3D17B68DB6B1846D4
:103B2000FEF7E5FE7B6802225A637B689A8D7B680C
:103B3000DB8D9BB2D31A9BB21946786800F0BFF8B0
:103B40009CE000BF4B3E00087B689A8D7B68DB8D54
:103B50009BB2D31AA7F8CE307B68DB8D9BB2002BCB
:103B600000F08E80B7F8CE30002B00F089807B68A3
:103B70001B680C33BB63BB6B53E8003F7B637B6B01
:103B800023F49073C7F8C8307B681B680C33D7F8F0
:103B9000C8207A643B64396C7A6C41E80023FB638B
:103BA000FB6B002BE3D17B681B6814337B627B6A61
:103BB00053E8003F3B623B6A23F00103C7F8C4307F
:103BC0007B681B681433D7F8C4203A63FB62F96A38
:103BD0003A6B41E80023BB62BB6A002BE3D17B68F0
:103BE000202283F842207B6800221A637B681B68CE
:103BF0000C333B613B6953E8003FFB60FB6823F0FB
:103C00001003C7F8C0307B681B680C33D7F8C0209E
:103C1000FA61BB61B969FA6941E800237B617B699C
:103C2000002BE3D17B6802225A63B7F8CE301946E5
:103C3000786800F044F823E0D7F8E43003F080031C
:103C4000002B09D0D7F8E03003F08003002B03D01D
:103C5000786800F00EF914E0D7F8E43003F0400380
:103C6000002B0ED0D7F8E03003F04003002B08D033
:103C7000786800F04DF904E000BF02E000BF00E00A
:103C800000BFE837BD4680BD80B483B000AF786028
:103C900000BF0C37BD4680BC704780B483B000AF16
:103CA000786000BF0C37BD4680BC704780B483B0DD
:103CB00000AF786000BF0C37BD4680BC704780B451
:103CC00083B000AF78600B467B8000BF0C37BD46E9
:103CD00080BC704780B586B000AFF860B9603B60CB
:103CE0001346FB713BE03B6AB3F1FF3F37D0FDF772
:103CF00047FF02463B68D31A3A6A9A4202D33B6AAC
:103D0000002B01D103233AE0FB681B68DB6803F05A
:103D10000403002B23D0BB68802B20D0BB68402B32
:103D20001DD0FB681B681B6803F00803082B16D125
:103D300000237B61FB681B681B687B61FB681B6859
:103D40005B687B617B69F86800F01DF8FB680822FE
:103D50005A64FB68002283F8402001230FE0FB68CF
:103D60001B681A68BB681340BA689A420CBF0123EB
:103D70000023DBB21A46FB799A42B4D000231846DE
:103D80001837BD4680BD80B495B000AF78607B68C1
:103D90001B680C337B637B6B53E8003F3B633B6BDF
:103DA00023F49073FB647B681B680C33FA6C3A64F1
:103DB000FB63F96B3A6C41E80023BB63BB6B002BE0
:103DC000E5D17B681B6814333B623B6A53E8003FD4
:103DD000FB61FB6923F00103BB647B681B68143340
:103DE000BA6CFA62BB62B96AFA6A41E800237B6284
:103DF0007B6A002BE5D17B681B6B012B19D17B689B
:103E00001B680C33FB60FB6853E8003FBB60BB687A
:103E100023F010037B647B681B680C337A6CBA61F7
:103E20007B617969BA6941E800233B613B69002BFA
:103E3000E5D17B68202283F842207B6800221A6348
:103E400000BF5437BD4680BC704780B584B000AF1A
:103E500078607B685B6AFB60FB680022DA85FB6840
:103E60000022DA84F868FFF721FF00BF1037BD4653
:103E700080BD80B485B000AF78607B6893F8413036
:103E8000DBB2212B3ED17B689B68B3F5805F14D1F8
:103E90007B681B69002B10D17B681B6AFB60FB6889
:103EA0001B881A467B681B68C2F308025A607B684D
:103EB0001B6A9A1C7B681A6208E07B681B6A591CA3
:103EC0007A6811621A787B681B685A607B68DB8CA1
:103ED0009BB2013B9BB27A681946D184002B0FD16B
:103EE0007B681B68DA687B681B6822F08002DA60F6
:103EF0007B681B68DA687B681B6842F04002DA6006
:103F0000002300E0022318461437BD4680BC7047EA
:103F100080B582B000AF78607B681B68DA687B6828
:103F20001B6822F04002DA607B68202283F841207F
:103F30007868FFF7A9FE002318460837BD4680BD04
:103F400080B58CB000AF78607B6893F84230DBB20C
:103F5000222B40F0AE807B689B68B3F5805F17D161
:103F60007B681B69002B13D10023FB627B689B6A73
:103F7000BB627B681B685B689BB2C3F308039AB2A1
:103F8000BB6A1A807B689B6A9A1C7B689A6226E0EF
:103F90007B689B6AFB620023BB627B689B68B3F50E
:103FA000805F07D07B689B68002B0AD17B681B6908
:103FB000002B06D17B681B685B68DAB2FB6A1A705B
:103FC00008E07B681B685B68DBB203F07F03DAB252
:103FD000FB6A1A707B689B6A5A1C7B689A627B68D2
:103FE000DB8D9BB2013B9BB27A681946D185002BD1
:103FF0005DD17B681B68DA687B681B6822F0200251
:10400000DA607B681B68DA687B681B6822F4807260
:10401000DA607B681B685A697B681B6822F00102C2
:104020005A617B68202283F842207B6800225A6311
:104030007B681B6B012B35D17B6800221A637B6880
:104040001B680C337B617B6953E8003F3B613B6934
:1040500023F010037B627B681B680C337A6A3A6238
:10406000FB61F9693A6A41E80023BB61BB69002B37
:10407000E5D17B681B681B6803F01003102B0AD185
:104080000023FB607B681B681B68FB607B681B6808
:104090005B68FB60FB687B689B8D19467868FFF75F
:1040A0000EFE02E07868FFF7F8FD002302E000232F
:1040B00000E0022318463037BD4680BD80B584B08D
:1040C00000AF78607B681B681B6923F440517B68F4
:1040D000DA687B681B680A431A617B689A687B68A8
:1040E0001B691A437B685B691343BB607B681B6871
:1040F000DB6823F4B05323F00C037A681268B968C4
:104100000B43D3607B681B685B6923F440717B6859
:104110009A697B681B680A435A617B681B682C4A52
:10412000934203D1FFF710FAF86002E0FFF7F8F9C5
:10413000F860FA6813469B0013449A001A447B689F
:104140005B689B00B2FBF3F3224AA2FB03235B09EB
:104150001901FA6813469B0013449A001A447B68BD
:104160005B689B00B2FBF3F21A4BA3FB02035B09F3
:10417000642000FB03F3D31A1B013233154AA2FB60
:1041800003235B0903F0F0031944FA6813469B000C
:1041900013449A001A447B685B689B00B2FBF3F2FD
:1041A0000C4BA3FB02035B09642000FB03F3D31A4F
:1041B0001B013233074AA2FB03235B0903F00F0202
:1041C0007B681B680A449A6000BF1037BD4680BDFB
:1041D000003801401F85EB51024B0146186800F082
:1041E0002BB800BF74000020024B0146186801F094
:1041F0003FBD00BF7400002070B50E4E0C46316804
:10420000054611B900F068FE30602146284600F0EE
:1042100063FE431C0AD0C41C24F00304A04207D050
:10422000211A284600F058FE013001D14FF0FF342A
:10423000204670BDF40200202DE9F843CD1C25F086
:10424000030508350C2D38BF0C25002D074601DB72
:10425000A94205D90C2300263B603046BDE8F8830F
:10426000DFF8D08000F068F8D8F800301C465CBB5E
:1042700029463846FFF7C0FF431C044655D1D8F8FD
:1042800000402646002E45D1002C48D023683146F8
:10429000384604EB030900F01FFE81453FD1216839
:1042A00038466D1A2946FFF7A7FF013037D023683B
:1042B0002B442360D8F80030002B38D05A68A24233
:1042C0002BD100225A600FE02268521B1FD40B2A08
:1042D00017D96119A342256018BF5960636808BFE8
:1042E000C8F8001062514B60384604F10B0600F02C
:1042F00029F826F00706231DF21AAED09B1BA35007
:10430000ABE7A3426268DDD1C8F80020ECE72346A2
:104310006468ACE734467668B4E71346CCE70C2310
:1043200038463B6000F00EF897E72560DCE75B60FD
:10433000FFDE00BFF0020020014800F01ABE00BFFF
:1043400038040020014800F015BE00BF38040020EA
:10435000002B2DE9F0471F46BBBF03F100431F466A
:1043600000232D2388B01446129A109D1370149BBD
:10437000DDF84CA023F02008B8F1460F05D0B8F1C5
:10438000450F00D10135022300E0032307AA049260
:1043900006AACDE902A2CDE9003522463B4600F04F
:1043A00083FEB8F1470F064602D1119BDB0722D5E9
:1043B000B8F1460F06EB050910D13378302B0AD13E
:1043C0000022002320463946FCF7EEFA18B9C5F161
:1043D0000105CAF80050DAF80030994400220023A1
:1043E00020463946FCF7E0FA08B1CDF81C9030229F
:1043F000079B4B4507D33046079B159A9B1B1360C1
:1044000008B0BDE8F087591C07911A70F0E7034621
:10441000F7B5002903F8022BB6BF2D222B22494203
:10442000092942702ADD0DF1070217460A2691FB81
:10443000F6F5944606FB151430340CF8014C0C4686
:10444000632C294602F1FF32F1DC3031ACF1020479
:1044500002F8011C2246411CBA420AD30DF109029E
:10446000A2EB0C02BC4288BF00221344181A03B00E
:10447000F0BD12F8015B01F8015FEDE73023303148
:104480008370C170031DF1E72DE9F04F91B00C4628
:10449000DDF8688016461F46054600F0E5FC036817
:1044A00018460993FBF754FE00230E93D8F800300A
:1044B0000A90073323F0070303F1080294F81890D9
:1044C000D4F800B0C8F80020D3E900A8524643460B
:1044D000C4E9122328F000430B934FF0FF325046FB
:1044E0009C4B0B99FCF792FA70BB4FF0FF32504691
:1044F000984B0B99FCF76CFA30BB00220023504616
:104500004146FCF75BFA10B12D2384F84330924A00
:10451000924BB9F1470F94BF9046984603234FF052
:10452000000A23612BF0040323603346214628460A
:1045300000970FAA00F0D6F9013040F090804FF0BC
:10454000FF3011B0BDE8F08F524643465046414619
:10455000FCF75CFA48B1B8F1000FB8BF2D23804AD0
:10456000B8BF84F843307F4BD3E7636809F0DF01BD
:104570005A1C42D106236360002206920EAACDE99E
:1045800004920DAA4BF4806303920DF13302CDE93E
:1045900001322360636852460093284643460B91DC
:1045A000FFF7D6FE0B99804647290D9908D1C81C04
:1045B00002DB6368994240DDA9F102095FFA89F9DB
:1045C000B9F1650F1FD84A46013904F150000D9129
:1045D000FFF71DFF0E9A82461318012A236102DCA1
:1045E0002268D20701D5013323619DF83330002BB7
:1045F0009BD02D2384F8433097E74729BCD1002B6B
:10460000BAD10123B7E7B9F1660F18D10029636861
:104610000BDD216113B92268D00702D501330B44A9
:1046200023614FF0000AA165DFE713B92268D207C2
:1046300001D50233F4E70123F2E74FF067090E9B3F
:10464000994205DB23682161D807EAD54B1CE7E7CF
:104650000029CCBF0122C1F102021344E0E7236824
:104660005A0507D42369424631462846B8470130E7
:104670002BD164E7B9F1650F40F2DD80D4E9120176
:1046800000220023FCF790F9002833D001233146A3
:104690002846354AB84701303FF451AFDDE90D23D4
:1046A0009A4202DB2368D8070FD5DDE9092331469A
:1046B0002846B84701303FF442AF4FF0000804F1FC
:1046C0001A090E9B013B434509DC23689B0700F157
:1046D0000481E0680F9B9842B8BF184631E7012378
:1046E0004A4631462846B84701303FF428AF08F122
:1046F0000108E6E70D9B002B38DC012331462846F4
:10470000194AB84701303FF41AAFDDE90D321343BF
:1047100002D12368D907D8D5DDE9092331462846D7
:10472000B84701303FF40BAF4FF0000904F11A0A0B
:104730000D9B5B424B4501DC0E9B94E701235246E7
:1047400031462846B84701303FF4F9AE09F1010976
:10475000EEE700BFFFFFEF7FCE7D0008D27D0008AF
:10476000D67D0008DA7D0008DE7D00080E9AA36D74
:104770009A42A8BF1A46002A914637DC4FF0000B38
:1047800029EAE97904F11A02D4F858A0AAEB09033E
:104790005B4533DCDDE90D239A423BDB2368DA0716
:1047A00038D4DDE90D32A2EB0309A2EB0A029145F0
:1047B000A8BF9146B9F1000F34DC4FF0000829EA98
:1047C000E97904F11A0ADDE90D239B1AA3EB090329
:1047D00043457FF77AAF0123524631462846B84712
:1047E00001303FF4ACAE08F10108ECE71346314666
:1047F00042462846B8470130C0D1A0E601233146E1
:1048000028460B92B84701303FF499AE0B9A0BF152
:10481000010BB9E73146DDE909232846B8470130E5
:10482000BFD18CE64B463146284608EB0A02B84712
:104830000130C2D183E60E9A012A01DCDB0739D5AB
:104840000123424631462846B84701303FF477AE4F
:10485000DDE9092331462846B84701303FF46FAE01
:10486000D4E9120100220023DDF83890FCF79CF80F
:10487000D8B909F1FF3308F1010231462846B8479B
:1048800001300ED15BE601234A4631462846B8473F
:1048900001303FF454AE08F101080E9B013B434543
:1048A000F1DC534604F15002DEE64FF0000804F15B
:1048B0001A09F2E701234246DFE701234A4631465F
:1048C0002846B84701303FF43AAE08F10108E368E2
:1048D0000F995B1A4345F0DCFBE64FF0000804F14A
:1048E0001909F4E72DE9F047164699468A680B69DD
:1048F00007469342B8BF1346336091F843200C46F5
:10490000DDF820800AB1013333602368990642BF85
:10491000336802333360256815F0060506D104F1CB
:10492000190AE36832689B1AAB422BDC94F84320E7
:10493000131E226818BF0123920630D44946384618
:1049400004F14302C047013023D02368226903F0F9
:104950000603042B14BF002533684FF0000608BF80
:10496000E56804F11A0408BFED1A54F8123C08BFB8
:1049700025EAE5759342C4BF9B1AED18B5421AD1DA
:10498000002008E00123524649463846C04701301E
:1049900003D14FF0FF30BDE8F0870135C1E730208B
:1049A000E11881F843005A1C94F845102244023360
:1049B00082F84310C2E70123224649463846C047E1
:1049C0000130E6D00136D9E72DE9FF470F7E914649
:1049D000782F80460C469A460C9D01F1430207D879
:1049E000622F0AD8002F00F0D580582F00F0C18028
:1049F00004F1420584F842703AE0A7F16303152BF5
:104A0000F6D801A151F823F0614A0008754A000860
:104A1000F1490008F1490008F1490008F14900088E
:104A2000754A0008F1490008F1490008F1490008F9
:104A3000F14900087B4B0008A14A0008354B0008EB
:104A4000F1490008F14900089D4B0008F1490008B0
:104A5000A14A0008F1490008F14900083D4B00084F
:104A60002B681A1D1B682A6004F1420584F8423045
:104A70000123A0E020682B68070603F104012960E8
:104A800001D51E6803E04606FBD5B3F90060002E91
:104A900003DA2D23764284F843300A23594812E082
:104AA0002B682068191D2960050601D51E6802E0E3
:104AB0004106FBD51E886F2F0CBF08230A235148DF
:104AC000002184F843106568002DA8BF2168A56007
:104AD000A4BF21F0040121600EB9002D4BD0154672
:104AE000B6FBF3F103FB1167C75D05F8017D37469F
:104AF000BB420E46F4D9082B0BD12368DE0708D53C
:104B0000236961689942DEBF302305F8013C05F155
:104B1000FF35521B22614B4621464046CDF800A08E
:104B200003AAFFF7DFFE01304AD14FF0FF3004B097
:104B3000BDE8F087236843F02003236078273248DC
:104B400084F84570236829681F0651F8046B02D465
:104B50005F0648BFB6B2DF0748BF43F020032960B5
:104B600048BF23601EB9236823F02003236010236D
:104B7000A6E72448E4E71546BDE72B682668181D1C
:104B80006169286035061B6801D5196002E070066E
:104B9000FBD51980002315462361BCE72B68002153
:104BA0001A1D2A601D686268284600F0E4F908B101
:104BB000401B606063682361002384F84330AAE7E8
:104BC0002A46494640462369D0470130ADD0236884
:104BD0009B0713D4E068039B9842B8BF1846A6E72A
:104BE0000123324649464046D04701309DD0013529
:104BF000E36803995B1AAB42F2DCEBE7002504F1B2
:104C00001906F5E7E07D0008F17D0008002310B5E6
:104C10000446C0E90033C0E9043383608181436600
:104C2000C2818361194608225C3000F014F90D4BF3
:104C3000246263620C4BA3620C4BE3620C4B236354
:104C40000C4B9C4206D003F16802944202D0D03350
:104C50009C4205D104F15800BDE8104000F088B92D
:104C600010BD00BFD14D0008F34D00082B4E0008C9
:104C70004F4E0008F8020020024A0349034800F0A2
:104C800069B800BF1C000020A567000828000020AC
:104C900041680C4B10B59942044601D001F082FDE9
:104CA000A168094B994202D0204601F07BFDE168E2
:104CB000064B994204D02046BDE8104001F072BD79
:104CC00010BD00BFF802002060030020C8030020D0
:104CD00010B50B4B0B4C0C4A20461A6004210022E5
:104CE000FFF794FF04F1680001220921FFF78EFF0E
:104CF00004F1D0000222BDE810401221FFF786BF68
:104D000030040020F8020020794C0008014800F02F
:104D100030B900BF39040020014800F02BB900BFB2
:104D20003904002010B50446FFF7F0FF236A1BB1D9
:104D3000BDE81040FFF7F0BF044B2362044B1B6833
:104D4000002BF5D1FFF7C4FFF2E700BF914C00083C
:104D5000300400202DE9F843074688461446002613
:104D6000D4E90195B9F1010905D52468002CF7D1E2
:104D70003046BDE8F883AB89012B07D9B5F90E3071
:104D8000013303D029463846C04706436835E9E772
:104D90000EB46FF0004100B59CB01DAB02900690C0
:104DA000079104910848094953F8042B05910068BC
:104DB00002A9019301F076FB0022029B1A701CB03D
:104DC0005DF804EB03B07047740000200802FFFF99
:104DD00010B50C46B1F90E1000F06CF80028ABBF0E
:104DE000636DA3891B1823F48053ACBF6365A38153
:104DF00010BD2DE9F0411F468B890546DB050C46A9
:104E0000164605D502230022B1F90E1000F040F835
:104E1000A389324623F48053A38128463B46B4F944
:104E20000E10BDE8F04100F067B810B50C46B1F9BE
:104E30000E1000F02DF8431CA38915BF606523F404
:104E4000805343F48053A38118BFA38110BDB1F9EF
:104E50000E1000F00DB803460244934200D1704793
:104E600003F8011BF9E700000048704768010020C3
:104E700038B50023054D044608462B60FCF796FD27
:104E8000431C02D12B6803B1236038BD34040020D9
:104E900038B50446084611460022054D2A601A46D8
:104EA000FCF7A8FD431C02D12B6803B1236038BD79
:104EB0003404002038B50446084611460022054D4A
:104EC0002A601A46FCF739FD431C02D12B6803B156
:104ED000236038BD3404002038B50023054D044656
:104EE00008462B60FCF792FD431C02D12B6803B1EE
:104EF000236038BD3404002038B504460846114606
:104F00000022054D2A601A46FCF734FD431C02D1ED
:104F10002B6803B1236038BD34040020014B1868AE
:104F2000704700BF7400002070B500260C4D0D4C7A
:104F3000641BA410A64209D102F0CCFE00260A4D43
:104F40000A4C641BA410A64205D170BD55F8043B61
:104F500098470136EEE755F8043B98470136F2E7EB
:104F60007081000870810008708100087481000859
:104F7000704770477047034610B5C9B20244934268
:104F8000184601D1002003E0047801338C42F6D1A9
:104F900010BD2DE9F74F03690C690746A3427FDB7B
:104FA000013C00F1140501F1140805EB84030193A1
:104FB00058F8243055F8242001339A42B2FBF3F616
:104FC0004FEA840B08EB840931D34FF0000E4046C2
:104FD000AC46F24650F8042B93B206FB03E34FEACB
:104FE000124E1A0C9BB206FB0E22AAEB0303DCF84E
:104FF00000A04FEA124E1FFA8AFA5344DCF800A0D0
:1050000092B2C2EB1A4202EB23429BB243EA024342
:1050100081454FEA224A4CF8043BDBD255F80B306D
:105020002BB9019B043B9D421A462DD33C61384667
:1050300001F0E0F8002823DB29460020013658F86B
:10504000042BD1F800C093B2C31A120C1FFA8CF0D3
:105050000344C2EB1C4202EB23429BB243EA0243ED
:10506000C1454FEA224041F8043BE8D255F82420DC
:1050700005EB840322B9043B9D421A460AD33C61E6
:10508000304603B0BDE8F08F1268043B002ACDD152
:10509000013CC8E71268043B002AF0D1013CEBE771
:1050A0000020EEE7000000002DE9F04F16461F46F5
:1050B000C46999B00546CDE90467DDF8948074B9F8
:1050C0001020FFF789F80246E86120B9EF21AC4BC8
:1050D000AC4801F0B7FBC0E901440460C460EB696F
:1050E000196851B15A68012393404A608B60284681
:1050F00000F046FE0022EB691A603B1EAFBF0023A2
:10510000012223F000430593A8BFC8F80030DDF862
:1051100014909D4BB8BFC8F8002033EA090319D199
:1051200042F20F73249A1360C9F31303334300F060
:105130008985269B53B9954B23E0954B0393083300
:10514000269A1360039819B0BDE8F08F8F4B039334
:105150000333F5E7DDE90434CDE90C34DDE90C0176
:1051600000220023FBF720FC804660B10123249A33
:105170001360269B002B00F06285864B269A1360F5
:10518000013B0393DEE716AB019317AB0093284670
:10519000DDE90C2301F0D6F8C9F30A548246002C4D
:1051A0007ED0DDE90C010D9BA4F2FF34C3F31303A1
:1051B00043F07F5343F44013CDF84C80194600224E
:1051C000754BFAF7D1FF68A3D3E90023FBF784F905
:1051D00067A3D3E90023FAF7C9FF064620460F4626
:1051E000FBF710F964A3D3E90023FBF775F9024636
:1051F0000B4630463946FAF7B9FF06460F46FBF72D
:105200001BFC00228346002330463946FBF7D6FBC1
:1052100048B15846FBF7F6F832463B46FBF7C4FB6D
:1052200008B90BF1FF3BBBF1160F57D8DDE90C01B4
:105230005A4B03EBCB03D3E90023FBF7BFFB00285A
:105240004ED000230BF1FF3B0F93169B1B1B5A1EE6
:1052500046BFC3F1010900234FF00009099248BF7E
:105260000993BBF1000F3DDB099BCDF838B05B44DF
:10527000099300230A93229B092B67D8052BC4BFEF
:10528000043B2293229BC8BF0024A3F10203D8BF92
:105290000124032B00F28680DFE803F02C39375617
:1052A000DDE916431C4404F23243202BC1BFC3F195
:1052B000400309FA03F904F2124326FA03F3D6BFB6
:1052C000C3F1200349EA030006FA03F0FBF78AF86A
:1052D0000122A1F1F873013C13926FE70123B3E7B8
:1052E0000F90B2E7CBF100030A930023A9EB0B095F
:1052F0000E93C0E700230B93239B002B55DC012367
:105300001A460693089323920BE00123F3E7002348
:105310000B93239B5B4406930133012B0893B8BF87
:10532000012300210422E86902F114069E4240D9BB
:105330004160284600F0E4FC039000283CD102467E
:1053400040F2AF11164BC3E60123E1E7012400232D
:105350000B9422934FF0FF330022069308931223FD
:10536000D1E700BFAFF3008061436F63A787D23FEF
:10537000B3C8608B288AC63FFB799F501344D33F44
:105380000F7E0008267E00080000F07F0B7E0008DC
:10539000027E0008DF7D00080000F83F107F000853
:1053A0007E7E000801230B93D4E7239B069308938A
:1053B000B7E701315200B7E7EB69039A1A60089B1F
:1053C0000E2B00F2A880002C00F0A580BBF1000F8E
:1053D00034DD9A4B0BF00F0203EBC2031BF4807F0A
:1053E000D3E90034CDE910344FEA2B1416D0DDE9AF
:1053F0000C01934B0327D3E90823FBF797F9CDE979
:10540000040104F00F048E4E54B9DDE91023DDE9E8
:105410000401FBF78BF9CDE9040129E00227F2E74B
:10542000E10708D5DDE91001D6E90023FBF754F8C0
:10543000CDE91001013764100836E5E700F0A580DA
:10544000DDE90C01CBF100047C4B04F00F0203EB0F
:10545000C203D3E90023FBF73FF802270023CDE97D
:105460000401774E2411002C40F08480002BD2D10F
:10547000DDE90434CDE910340F9B002B00F0878068
:10548000DDE9100100226F4BFBF798FA00287ED06F
:10549000089B002B7BD0069B002B38DDDDE910013B
:1054A0000022694BFBF718F8CDE90401069C0BF1CB
:1054B000FF3801373846FAF7A5FFDDE90423FBF78B
:1054C0000BF80022614BFAF751FEA1F15076CDE9BD
:1054D00010011196002C5DD1DDE9040100225C4B26
:1054E000FAF742FE02460B46CDE904233346109AF2
:1054F000FBF782FA002840F09582DDE90401109A5A
:1055000006F10043FBF75AFA002840F08982DDE9F2
:105510000C34CDE90434179B002BC0F25181BBF150
:105520000E0F00F34D81454B03EBCB03D3E9003461
:10553000CDE90634239B002B80F2DA80089B002BF8
:1055400000F3D68040F06B82DDE906010022404B7B
:10555000FAF7C2FFDDE90423FBF744FA089C26466C
:10556000002840F041823123039F0BF1010B07F823
:10557000013B3DE2E20705D5D6E90023FAF7ACFF8F
:1055800001230137641008366DE7022770E7D8461B
:10559000089C8FE70399294B214412910B9903EB47
:1055A000C403DDE9106753E90223002954D0002029
:1055B0002849FBF7BBF83B463246FAF7D5FDCDE963
:1055C0001001039FDDE90401FBF736FA0446FAF700
:1055D00019FF02460B46DDE90401FAF7C5FD024654
:1055E0000B463034CDE90423DDE9102307F8014BE5
:1055F000FBF7E4F9002873D1DDE904230020114909
:10560000FAF7B2FDDDE91023FBF7D8F9002840F0E6
:10561000B680129B9F423FF47AAFDDE91001002271
:10562000094BFAF759FF0022CDE91001DDE9040129
:10563000054BFAF751FFCDE90401C3E7107F0008DD
:10564000E87E00080000F03F0000244000001C40FD
:10565000000014400000E03F30463946FAF73CFFB6
:10566000129BCDE91001039C1493DDE90401FBF7C3
:10567000E3F91590FAF7C6FE02460B46DDE9040190
:10568000FAF772FD159B0646303304F8013B129B76
:105690000F469C424FF0000224D1DDE91001AF4BD0
:1056A000FAF764FD02460B4630463946FBF7A4F98B
:1056B000002863D1DDE910230020A849FAF754FD42
:1056C00002460B4630463946FBF778F900283FF48E
:1056D0001EAF149F7B1E149317F8013C302BF8D09B
:1056E000C3463BE09E4BFAF7F7FECDE90401BCE769
:1056F000039FDDE90489DDE9062340464946FBF7BF
:1057000015F8FBF799F90446FAF77CFEDDE9062364
:10571000FAF7E2FE02460B4640464946FAF724FDF8
:1057200004F1300607F8016B039EDDF820C0BE1BB4
:10573000B44502460B4636D1FAF718FDDDE90623DB
:1057400080468946FBF758F958BBDDE906234046F9
:105750004946FBF729F908B1E30722D45146284608
:1057600000F00EFB0023249A3B700BF10103136041
:10577000269B002B3FF4E6AC1F60E3E427463B4644
:105780001F4613F8012D392A07D1039A9A42F7D1FF
:105790003022039908F101080A701A7801321A7050
:1057A0009EE7D846EBE700226D4BFAF795FE002204
:1057B000002380468946FBF7F7F800289BD0CDE709
:1057C0000B9A002A00F0C480229A012A00F3A880D4
:1057D000139A002A00F0A08003F233434F460A9C3C
:1057E000099A01211A4428469944099200F07EFB47
:1057F00006465FB1099B002B08DDBB42A8BF3B46B4
:10580000099AA9EB0309FF1AD31A09930A9BF3B16A
:105810000B9B002B00F0A080002C10DD31462246AF
:10582000284600F021FC524601460646284600F074
:1058300073FB80465146284600F0A2FAC2460A9BF6
:105840001A1B04D05146284600F00EFC8246012166
:10585000284600F04BFB0E9B0446002B40F3828051
:105860001A460146284600F0FFFB229B0446012B06
:105870007BDD4FF00008236904EB8303186900F017
:10588000E7FAC0F12000099B184410F01F0000F057
:105890009280C0F12003042B40F38580099BC0F166
:1058A0001C000344814407440993B9F1000F05DD4E
:1058B00051464A46284600F031FC8246099B002B9F
:1058C00005DD21461A46284600F028FC04460F9BB9
:1058D000002B72D02146504600F08CFC00286CDA78
:1058E000002351460A22284600F06CFA0B9B8246A0
:1058F0000BF1FF3B002B00F0AC81002331460A2264
:10590000284600F05FFA069B0646002B00F39380C2
:10591000229B022B59DC8EE0169BC3F136035DE718
:10592000089B5C1E0A9BA342BFBF0A9B0E9AE31A08
:10593000D218A8BF1C1B089BBEBF0A940E9200245D
:10594000002BB5BFA9EB03074F460023089B47E791
:105950004F460A9C0B9E4CE70A9A73E70000E03F13
:1059600000002440229B012B18DC049BB3B9059B4B
:10597000C3F3130393B9059B23F000431B0D1B05D1
:105980007BB14FF00108099B09F10109013309932B
:105990000E9B002B7FF46FAF012074E74FF00008DF
:1059A000F6E79846F4E780D0099A1C331A449944E4
:1059B0001F44099279E70346F6E7089B002B34DC85
:1059C000229B022B31DD089B0693069B63B921467F
:1059D0000522284600F0F6F901460446504600F03C
:1059E00009FC00283FF7BFAD239B039F6FEA030B21
:1059F0004FF000082146284600F0C2F9002E3FF47F
:105A0000ADAEB8F1000F05D0B04503D041462846F1
:105A100000F0B6F93146284600F0B2F99EE60024BF
:105A20002646E1E7C34626469DE50B9B002B00F08A
:105A3000C880089B0693002F05DD31463A4628466C
:105A400000F06CFB0646B8F1000F5BD02846716889
:105A500000F056F9074628B9024640F2EF21814B83
:105A6000FFF736BB326906F10C01023292000C30AE
:105A700000F0DAFE01223946284600F04FFBB0461E
:105A80000646039B039A01330893069B13440B932A
:105A9000049B03F001030A93089B2146013B5046F7
:105AA0000493FFF776FA4146069000F1300950461C
:105AB00000F0A0FB324609902146284600F0B6FBD4
:105AC000C268074602BB0146504600F093FB0246FF
:105AD000394628460C9200F053F9229B0C9A089FF5
